:1000000045C000004BC0000049C0000047C00000D0
:1000100045C0000043C0000041C000003FC00000D8
:100020003DC000003BC0000039C0000037C00000E8
:1000300035C0000033C0000031C000002FC00000F8
:100040002DC000002BC0000029C0000027C0000008
:1000500025C0000023C0000021C000001FC0000018
:100060001DC000001BC0000019C0000017C0000028
:1000700015C0000013C0000028C000000FC0000021
:100080000DC000000BC0000009C0000011241FBEFD
:10009000CFEFD0E1DEBFCDBF09D041C0B1CF90914D
:1000A0009B0095FFFCCF80939C00089510929800D0
:1000B00083E38093990010929B0088E980939A00D3
:1000C00086E080939D007894FFCF1F920F920FB629
:1000D0000F9211240BB60F922F933F934F935F9380
:1000E0006F937F938F939F93AF93BF93EF93FF9300
:1000F00080919C0090E0D3DFFF91EF91BF91AF9191
:100100009F918F917F916F915F914F913F912F912F
:100110000F900BBE0F900FBE0F901F901895F89484
:02012000FFCF0F
:00000001FF
