S00D000073616C76652E73726563FC
S113000045C000004BC0000049C0000047C00000CC
S113001045C0000043C0000041C000003FC00000D4
S11300203DC000003BC0000039C0000037C00000E4
S113003035C0000033C000007AC000002FC00000AB
S11300402DC000002BC0000039C0000027C00000F4
S113005025C0000023C0000021C000001FC0000014
S11300601DC000001BC0000019C0000017C0000024
S113007015C0000013C0000011C000000FC0000034
S11300800DC000000BC0000009C0000011241FBEF9
S1130090CFEFD0E1DEBFCDBF02D05EC0B1CF1092B2
S11300A090008FE289B91BB888E98AB986E0809309
S11300B0950087B3806C87BB7894FFCF1F920F9213
S11300C00FB60F9211248F939F938CB1803369F4F0
S11300D088B3806488BB8EB5887F8EBD87B78B7FDD
S11300E087BF88B38F7788BB1BC0813311F0811120
S11300F00DC088B38F7B88BB8EB5887F8EBD87B7D4
S11301008B7F87BF88B38F7788BB0AC08EB5856025
S11301108EBD80EC97EC9DBD8CBD87B7846087BF96
S11301209F918F910F900FBE0F901F9018951F9263
S11301300F920FB60F9211248F939F938CE79CE03C
S11301409DBD8CBD88B3805888BB9F918F910F90C3
S10F01500FBE0F901F901895F894FFCF7D
S9030000FC
