S00E00006D61737465722E737265638A
S113000045C0000060C000005EC000005CC000008D
S11300105AC0000058C0000056C0000054C0000080
S113002052C0000050C000004EC000004CC0000090
S11300304AC0000048C0000046C0000044C00000A0
S113004042C0000040C000003EC000003CC00000B0
S11300503AC0000038C0000036C0000034C00000C0
S113006032C0000030C000002EC000002CC00000D0
S11300702AC0000028C0000026C0000024C00000E0
S113008022C0000020C000001EC0000011241FBEBA
S1130090CFEFD0E1DEBFCDBF11E0A0E0B1E0ECE6F0
S11300A0F3E000E00BBF02C007900D92A233B1074A
S11300B0D9F721E0A2E3B1E001C01D92A233B20757
S11300C0E1F7F8D051C19CCF8BB3806F8BBB8AB35F
S11300D08F708ABB8BB384608BBB8BB384608BBB08
S11300E099B3907F8BB38B7F8BBB8BB384608BBBBB
S11300F08BB384608BBB89B32BB32B7F2BBB8295D3
S11301008F70892B08952BB32F70382F307F40E1E7
S1130110849FC0011124922F932B9BBB9BB39460AB
S11301209BBB9BB39B7F9BBB822B8BBB8BB38460A2
S11301308BBB8BB38B7F8BBB0895CF93DF931F92C5
S1130140CDB7DEB78BB38E7F8BBB8BB382608BBB9B
S1130150BBDF898389818823ACF38BB38D7F8BBB11
S11301608FEF8ABB0F90DF91CF9108958FEF8ABBF9
S11301708ABB8BB38E7F8BBB8BB38D7F8BBB8BB3D7
S11301808B7F8BBB8BB384608BBB8BB380628BBB4D
S11301908BB38B7F8BBBD1DF88E2B5DFCEDF8BB334
S11301A08E7F8BBB8EE0AFDFC8DF8BB38E7F8BBBC4
S11301B086E0A9DFC2CF0895282F30E0215031090D
S11301C0862F90E4299F800D11249BB39E7F9BBBB7
S11301D0815899DFB2CF08958BB38E7F8BBB81E0BA
S11301E092DFABCF08959BB391609BBB8CDFA5CF0F
S11301F008950F931F93CF938C01C0E002C0F3DFE7
S1130200CF5FF801EC0FF11D80818111F8CFCF9100
S11302101F910F9108955D9BFECF8CB9089550E016
S113022030C0652F70E09B012C5F3F4F81E090E070
S113023002C0880F991F2A95E2F7809585BB88E153
S11302408A95F1F700C093B39F709F30B1F418C042
S1130250282F30E0F901E05FFE4F408194130BC07A
S1130260220F331F220F331F20503F4FF901E60F97
S1130270F71F808108958F5F01C080E0843040F3D0
S11302805F5F543070F280E00895E199FECF9FBB28
S11302908EBB6DBB8CB384608CBB8CB382608CBB17
S11302A00895E199FECF9FBB8EBB8CB381608CBB5C
S11302B08DB30895109290008FE289B987B38F7D32
S11302C087BB88B3806288BB1BB88AB188608AB94F
S11302D0E5E9F0E080818660808380EF84BB8FE075
S11302E085BB44DF79DFD0E09ADFC82F61E081E08D
S11302F063DFCC23C9F3CE3479F486EF8A95F1F722
S1130300CE3491F769DF60E080E090E0BEDF80E00A
S113031090E0C7DF80DFE8CFCD3369F486EF8A95BC
S1130320F1F7CD3309F784E191E063DF6D2F80E0CD
S113033090E0ABDFD9CFC43499F486EF8A95F1F716
S113034061E082E039DFC43479F684E291E051DF80
S113035080E090E0A6DFC82F46DF8C2F5CDFC4CF9F
S10F03608C2F41DFDC2FC0CFF894FFCFBE
S113036C3132334134353642373839434E303D44DB
S113037C0E0D0B0774687563206869656E206C65D7
S113038C6E68210043687579656E206C656E683AF9
S105039C20003B
S9030000FC
