S00D00005461736B322E7372656352
S113000045C0000053C0000051C000004FC00000B4
S11300104DC000004BC0000049C0000047C00000B4
S113002045C0000043C0000041C000003FC00000C4
S11300303DC000003BC0000039C0000037C00000D4
S113004035C0000033C00000D1C000002FC0000044
S11300502DC000002BC0000029C0000027C00000F4
S113006025C0000023C0000021C000001FC0000004
S11300701DC000001BC0000019C0000017C0000014
S113008015C0000013C0000011C0000011241FBEE1
S1130090CFEFD0E1DEBFCDBF21E0A0E0B1E001C0F1
S11300A01D92A130B207E1F7CDD008C1A9CF8BB31F
S11300B0806F8BBB8AB38F708ABB8BB384608BBB1E
S11300C08BB384608BBB99B3907F8BB38B7F8BBBDB
S11300D08BB384608BBB8BB384608BBB89B32BB332
S11300E02B7F2BBB82958F70892B08952BB32F7098
S11300F0382F307F40E1849FC0011124922F932B2D
S11301009BBB9BB394609BBB9BB39B7F9BBB822B92
S11301108BBB8BB384608BBB8BB38B7F8BBB089502
S1130120CF93DF931F92CDB7DEB78BB38E7F8BBB9C
S11301308BB382608BBBBBDF898389818823ACF35B
S11301408BB38D7F8BBB8FEF8ABB0F90DF91CF91E9
S113015008958FEF8ABB8ABB8BB38E7F8BBB8BB327
S11301608D7F8BBB8BB38B7F8BBB8BB384608BBB43
S11301708BB380628BBB8BB38B7F8BBBD1DF88E26D
S1130180B5DFCEDF8BB38E7F8BBB8EE0AFDFC8DFF6
S11301908BB38E7F8BBB86E0A9DFC2CF0895282F57
S11301A030E021503109862F90E4299F800D1124DD
S11301B09BB39E7F9BBB815899DFB2CF08958BB3CD
S11301C08E7F8BBB81E092DFABCF08959BB39160B0
S11301D09BBB8CDFA5CF0895CF93C82FF0DF61E0E0
S11301E081E0DDDF8C2FF2DFCF9108951F920F9213
S11301F00FB60F9211240BB60F922F933F934F9388
S11302005F936F937F938F939F93AF93BF93EF937A
S1130210FF938CB18093000180910001DDDFFF9199
S1130220EF91BF91AF919F918F917F916F915F916A
S11302304F913F912F910F900BBE0F900FBE0F90D7
S11302401F90189587B3806C87BB88B3806888BB80
S11302501092900083E089B91BB88AB188698AB981
S1130260E5E9F0E080818660808373DFA8DF78941D
S113027080910001813619F0823649F00FC098B39D
S113028080E4892788BB88B3806888BB0DC088B3A5
S1130290805888BB88B38F7B88BB06C088B38F7BAC
S11302A088BB88B3806888BB2FEF8FE39BE0215025
S11302B080409040E1F700C00000DACFF894FFCF0F
S9030000FC
