:100000000C94C7000C94E6000C94E6000C94E600F7
:100010000C94E6000C94E6000C94E6000C94E600C8
:100020000C94E6000C94E6000C94E6000C94E600B8
:100030000C94E6000C94E6000C94E6000C94E600A8
:100040000C94E6000C94E6000C94E6000C94E60098
:100050000C94E6000C94E6000C94E6000C94E60088
:100060000C94E6000C94E6000C94E6000C94E60078
:100070000C94E6000C94E6000C94E6000C94E60068
:100080000C94E6000C94E6000C94E6006E616E00A1
:10009000696E660000407A10F35A00A0724E18098B
:1000A0000010A5D4E80000E87648170000E40B54DF
:1000B000020000CA9A3B000000E1F50500008096AE
:1000C0009800000040420F000000A08601000000E0
:1000D000102700000000E80300000000640000009A
:1000E00000000A00000000000100000000002C7663
:1000F000D888DC674F0823DFC1DFAE59E1B1B7967E
:10010000E5E3E453C63AE651997696E8E6C28426DA
:10011000EB898C9B62ED407C6FFCEFBC9C9F40F2B6
:10012000BAA56FA5F490055A2AF75C936B6CF96732
:100130006DC11BFCE0E40D47FEF520E6B500D0EDF7
:10014000902E0300943577050080841E080000205F
:100150004E0A000000C80C333333330F986E1283FD
:100160001141EF8D2114893BE65516CFFEE6DB18D1
:10017000D1844B381BF77C1D901DA4BBE424203296
:1001800084725E228100C9F124ECA1E53D2711248F
:100190001FBECFEFD0E1DEBFCDBF11E0A0E0B1E0E8
:1001A000E4EDFCE000E00BBF02C007900D92A03030
:1001B000B107D9F711E0A0E0B1E001C01D92A03075
:1001C000B107E1F70E9484040C94B6040C9400007B
:1001D000A3E1B0E0EEEEF0E00C9431063C01798B47
:1001E000688B5A01FC0117821682838181FD03C04E
:1001F0006FEF7FEF84C37AE0472E9E012F5F3F4F62
:100200003B8B2A8BF3012381E889F98923FD8591B2
:1002100023FF8191F98BE88B882309F46DC3853224
:1002200051F4E889F98923FD859123FF8191F98BA8
:10023000E88B853229F4B30190E00E94A705E2CF54
:10024000982FDD2455249924FFE1FD15D0F09B3231
:1002500069F09C3228F4903259F0933291F40EC038
:100260009D3249F0903369F431E029C042E0D42A4C
:1002700054E0D52A28C088E0D82A25C090E1D92AA0
:1002800022C0D7FC2BC0892F80538A3070F4D6FE51
:1002900005C0949C902C1124980E15C0549C502C91
:1002A0001124580EE0E2DE2A0EC09E3229F4D6FC5C
:1002B00023C3F0E4DF2A07C09C3619F430E8D32AC0
:1002C00002C0983659F4E889F98923FD959123FFF6
:1002D0009191F98BE88B992309F0B6CF892F85543A
:1002E000833020F48D2D8061905E07C0892F855664
:1002F000833008F0A9C18D2D8F7E86FD02C066E097
:10030000962E5FE3F52EF822953619F4F0E4FF2AD5
:1003100007C0963619F420E8F22A02C091109A9488
:10032000F7FE0BC03BE3391520F427E04CE3842EA5
:100330000EC0892C839427E00AC047E0491528F4B1
:1003400027E0882437E0932E02C0292D8824C50198
:1003500004969D878C87F5016081718182819381EC
:10036000082DAE014F5F5F4F0E94B9046C010981F7
:10037000202F30E03F872E8700FF05C03E8533FDEC
:1003800002C01DE209C0F1FE02C01BE205C0F2FC82
:1003900002C010E001C010E28E859F858C709070C5
:1003A000892BC1F1112311F483E001C084E085158C
:1003B00010F055240AC0581AF3FC07C0B30180E2BC
:1003C00090E00E94A7055A94C9F7112329F0B301C0
:1003D000812F90E00E94A7054E8543FF03C00CE8E3
:1003E00010E00EC000E910E00BC0E114F10409F0C8
:1003F0008052B30190E00E94A7050F5F1F4F05C018
:10040000EF2CFF2450E1E522FF24F801849188239A
:1004100061F717C1F7FE13C08C0CFE85F4FF04C012
:100420008A81813309F48A9418141CF088248394F7
:100430002DC028E0281550F598E0892E27C0F6FC3D
:1004400025C0892D90E08C159D054CF03CEFC3161E
:100450003FEFD30624F040E8F42A01C09A94992093
:1004600049F0E2E0F0E0EC0FFD1FE90DF11D8081A5
:100470008033A1F3F7FE0AC0892C8394892D90E084
:10048000C816D90614F0992401C09C18F7FC03C0C3
:1004900025E030E009C01C141D041CF021E030E010
:1004A00003C096012F5F3F4F112311F02F5F3F4F85
:1004B000992029F0892D90E00196280F391F852D6C
:1004C00090E02817390714F0552401C0521AAF2CB8
:1004D000BB24C50189709070892B39F008C0B30125
:1004E00080E290E00E94A7055A945520C1F711239D
:1004F00029F0B301812F90E00E94A705A3FE07C059
:1005000008C0B30180E390E00E94A7055A945520EB
:10051000C1F7F7FE48C08601D7FE02C000E010E038
:1005200076010894E11CF11CE01AF10A81E090E0E8
:100530008C0F9D1FE80EF91E160128183108892D11
:1005400090E0AA24BB24A81AB90A9FEF0F3F19070D
:1005500029F4B3018EE290E00E94A705C016D106EF
:1005600034F0201631061CF4F701808101C080E3CD
:10057000015010400894E11CF11C0A151B052CF0D9
:10058000B30190E00E94A705E0CF0C151D0541F4D2
:100590009A81963320F4953319F4FE85F4FF81E3B4
:1005A000B30190E04CC08A81813309F00F7EB30122
:1005B00090E00E94A7059920A1F0B3018EE290E09F
:1005C0000E94A70512E0E1E0F0E0EC0FFD1FE10F53
:1005D000F11D1F5FB301808190E00E94A7059A94EE
:1005E00091F7A4FC03C085E690E002C085E490E0AA
:1005F000B3010E94A705D7FC05C0C114D10441F482
:1006000004FF06C0D094C194D108D3948DE201C0F8
:100610008BE2B30190E00E94A70580E305C08F5FE5
:1006200026EF3FEFC20ED31E3AE0C316D104BCF74B
:10063000B30190E00E94A705B301C601C0960E94D5
:10064000A705AC84BD8455C1933631F0933791F042
:10065000933509F059C023C0F501808189837E015B
:100660000894E11CF11C22E030E0A20EB31E01E070
:1006700010E012C0F501E080F180D6FC03C06FEFFE
:100680007FEF02C0692D70E022E030E0A20EB31EC1
:10069000C7010E949C058C013FE7D32214C0F501DD
:1006A000E080F180D6FC03C06FEF7FEF02C0692DC0
:1006B00070E022E030E0A20EB31EC7010E94910557
:1006C0008C0130E8D32AD3FE07C01AC0B30180E200
:1006D00090E00E94A7055A94852D90E0081719070D
:1006E000A8F30EC0F701D7FC8591D7FE81917F0159
:1006F000B30190E00E94A70551105A940150104098
:100700000115110579F7F5C0943611F0993689F580
:10071000D7FE08C0F501E080F1800281138124E05A
:1007200030E00AC0F501808191817C010027F7FC4F
:100730000095102F22E030E0A20EB31E3FE6D32238
:1007400017FF0AC010950095F094E094E11CF11C8D
:10075000011D111D40E8D42A2AE030E0AE014F5FB0
:100760005F4FC801B7010E94D305F82E5A89F51AC8
:1007700043C0953729F41D2D1F7E2AE030E01DC0AF
:100780001D2D197F9F3661F0903720F4983509F0C0
:10079000B3C00FC0903739F0983709F0ADC004C02E
:1007A00028E030E00AC0106114FD146020E130E060
:1007B00004C014FD166020E132E017FF08C0F50107
:1007C000608171818281938144E050E008C0F5012D
:1007D00080819181BC0180E090E042E050E0A40E75
:1007E000B51EAE014F5F5F4F0E94D305F82E5A89A8
:1007F000F51A8FE7D82ED122D6FE0BC08EEFD82265
:10080000F91438F4D4FE07C0D2FC05C09FEED922FB
:1008100002C01F2D01C0192DD4FE0DC0FE01EF0D29
:10082000F11D8081803319F4E9EEDE2208C01F5FDC
:10083000D2FE05C003C08D2D867809F01F5F0D2DF7
:10084000D3FC14C0D0FE0FC0151510F09F2C0BC0A8
:100850009F2C950C911A152D06C0B30180E290E0F3
:100860000E94A7051F5F1515C0F304C0151510F4ED
:10087000511A01C0552404FF10C0B30180E390E079
:100880000E94A70502FF1EC001FD03C088E790E09B
:1008900002C088E590E0B3010CC0802F867891F00B
:1008A00001FF02C08BE201C080E2D7FC8DE2B30100
:1008B00090E00E94A70506C0B30180E390E00E948B
:1008C000A7059A94F914C0F3FA94E1E0F0E0EC0F74
:1008D000FD1FEF0DF11DB301808190E00E94A7057F
:1008E000FF2091F706C0B30180E290E00E94A705C7
:1008F0005A945520C1F786CCF30166817781CB01EC
:100900006396E2E10C944D06DF93CF93CDB7DEB74B
:10091000A7E3B0E0E7E3F0E0808180648C93A7E395
:10092000B0E0E7E3F0E080818F7D8C93A8E3B0E056
:10093000E8E3F0E0808180628C93E6E3F0E0808180
:10094000882F90E080729070009741F4A8E3B0E0A7
:10095000E8E3F0E0808180648C93EFCFA8E3B0E01F
:10096000E8E3F0E080818F7B8C93E7CFF8940C94E0
:100970006806283008F027E03327DA01990F311D87
:1009800087FD916000966105710539F432602E5F34
:100990003D9330E32A95E1F708959F3F30F080388A
:1009A0007105610509F03C5F3C5F3D93913008F0B3
:1009B0008068911DDF93CF931F930F93FF92EF9267
:1009C000192F987F9695E92F96959695E90FFF2711
:1009D000E251FF4F99273327EE24FF24A701E701B7
:1009E00005900894079428F4360FE71EF81E491F57
:1009F000511D660F771F881F991F0694A1F7059058
:100A0000079428F4E70EF81E491F561FC11D770FE3
:100A1000881F991F661F0694A1F70590079428F474
:100A2000F80E491F561FC71FD11D880F991F661F3B
:100A3000771F0694A1F70590079420F4490F561FDD
:100A4000C71FD81F990F661F771F881F0694A9F725
:100A500084911095177041F0D695C7955795479595
:100A6000F794E7941A95C1F7E4E9F0E068941590DB
:100A7000159135916591959105907FE27395E118F7
:100A8000F10A430B560BC90BD009C0F7E10CF11E5C
:100A9000431F561FC91FD01D7EF4703311F48A9571
:100AA000E6CFE894015030F0080F0AF4002702174F
:100AB00008F4202F2395022F7A3328F079E37D93D1
:100AC0002A95E9F710C07D932A9589F606949795A3
:100AD0006795379517951794E118F10A430B560B54
:100AE000C90BD00998F023957E9173957A3308F05D
:100AF00070E37C932013B8F77E9170617D9330F0A2
:100B0000839571E37D9370E32A95E1F71124EF90CB
:100B1000FF900F911F91CF91DF91992787FD9095BD
:100B20000895FC010590615070400110D8F7809540
:100B300090958E0F9F1F0895FC01615070400190A9
:100B40000110D8F7809590958E0F9F1F08950F93F1
:100B50001F93CF93DF938C01EB018B8181FF1BC02F
:100B600082FF0DC02E813F818C819D81281739071E
:100B700064F4E881F9810193F983E88306C0E8858C
:100B8000F985802F0995892B31F48E819F810196FB
:100B90009F838E8302C00FEF1FEFC801DF91CF91BB
:100BA0001F910F910895FA01AA27283051F12031A1
:100BB00081F1E8946F936E7F6E5F7F4F8F4F9F4FF1
:100BC000AF4FB1E03ED0B4E03CD0670F781F891F33
:100BD0009A1FA11D680F791F8A1F911DA11D6A0F01
:100BE000711D811D911DA11D20D009F468943F91B4
:100BF0002AE0269F11243019305D3193DEF6CF01B3
:100C00000895462F4770405D4193B3E00FD0C9F778
:100C1000F6CF462F4F70405D4A3318F0495D31FDE5
:100C20004052419302D0A9F7EACFB4E0A695979538
:100C3000879577956795BA95C9F70097610571050E
:100C400008959B01AC010A2E069457954795379558
:100C50002795BA95C9F7620F731F841F951FA01DB2
:100C600008952F923F924F925F926F927F928F9250
:100C70009F92AF92BF92CF92DF92EF92FF920F932B
:100C80001F93CF93DF93CDB7DEB7CA1BDB0B0FB635
:100C9000F894DEBF0FBECDBF09942A8839884888F2
:100CA0005F846E847D848C849B84AA84B984C88488
:100CB000DF80EE80FD800C811B81AA81B981CE0F7F
:100CC000D11D0FB6F894DEBF0FBECDBFED01089564
:040CD000F894FFCFC6
:00000001FF
