S00B00004C43442E7372656346
S113000045C0000053C0000051C000004FC00000B4
S11300104DC000004BC0000049C0000047C00000B4
S113002045C0000043C0000041C000003FC00000C4
S11300303DC000003BC0000039C0000037C00000D4
S113004035C0000033C0000031C000002FC00000E4
S11300502DC000002BC0000029C0000027C00000F4
S113006025C0000023C0000021C000001FC0000004
S11300701DC000001BC0000019C0000017C0000014
S113008015C0000013C0000011C0000011241FBEE1
S1130090CFEFD0E1DEBFCDBF21E0A0E0B1E001C0F1
S11300A01D92A030B207E1F781D09FC0A9CF8BB3D6
S11300B0806F8BBB8AB38F708ABB8BB384608BBB1E
S11300C08BB384608BBB99B3907F8BB38B7F8BBBDB
S11300D08BB384608BBB8BB384608BBB89B32BB332
S11300E02B7F2BBB82958F70892B08952BB32F7098
S11300F0382F307F40E1849FC0011124922F932B2D
S11301009BBB9BB394609BBB9BB39B7F9BBB822B92
S11301108BBB8BB384608BBB8BB38B7F8BBB089502
S1130120CF93DF931F92CDB7DEB78BB38E7F8BBB9C
S11301308BB382608BBBBBDF898389818823ACF35B
S11301408BB38D7F8BBB8FEF8ABB0F90DF91CF91E9
S113015008958FEF8ABB8ABB8BB38E7F8BBB8BB327
S11301608D7F8BBB8BB38B7F8BBB8BB384608BBB43
S11301708BB380628BBB8BB38B7F8BBBD1DF88E26D
S1130180B5DFCEDF8BB38E7F8BBB8EE0AFDFC8DFF6
S11301908BB38E7F8BBB86E0A9DFC2CF08958BB370
S11301A08E7F8BBB81E0A2DFBBCF08958FEF80935E
S11301B06100CFDFF4DFE2E6F0E08FEF80832FEF22
S11301C08FE796E1215080409040E1F700C00000A5
S11301D080818F7080832FEF8FE796E121508040DC
S11101E09040E1F700C00000E6CFF894FFCF96
S9030000FC
